{
  "_format": "hh-sol-artifact-1",
  "contractName": "GmPortal",
  "sourceName": "contracts/gmPortal.sol",
  "abi": [
    {
      "inputs": [],
      "stateMutability": "payable",
      "type": "constructor"
    },
    {
      "anonymous": false,
      "inputs": [
        {
          "indexed": true,
          "internalType": "address",
          "name": "from",
          "type": "address"
        },
        {
          "indexed": false,
          "internalType": "uint256",
          "name": "timestamp",
          "type": "uint256"
        },
        {
          "indexed": false,
          "internalType": "string",
          "name": "message",
          "type": "string"
        }
      ],
      "name": "NewGM",
      "type": "event"
    },
    {
      "inputs": [],
      "name": "getAllGms",
      "outputs": [
        {
          "components": [
            {
              "internalType": "address",
              "name": "gmer",
              "type": "address"
            },
            {
              "internalType": "string",
              "name": "message",
              "type": "string"
            },
            {
              "internalType": "uint256",
              "name": "timestamp",
              "type": "uint256"
            }
          ],
          "internalType": "struct GmPortal.GM[]",
          "name": "",
          "type": "tuple[]"
        }
      ],
      "stateMutability": "view",
      "type": "function"
    },
    {
      "inputs": [],
      "name": "getTotalGms",
      "outputs": [
        {
          "internalType": "uint256",
          "name": "",
          "type": "uint256"
        }
      ],
      "stateMutability": "view",
      "type": "function"
    },
    {
      "inputs": [
        {
          "internalType": "string",
          "name": "_message",
          "type": "string"
        }
      ],
      "name": "gm",
      "outputs": [],
      "stateMutability": "nonpayable",
      "type": "function"
    },
    {
      "inputs": [
        {
          "internalType": "address",
          "name": "",
          "type": "address"
        }
      ],
      "name": "lastGmd",
      "outputs": [
        {
          "internalType": "uint256",
          "name": "",
          "type": "uint256"
        }
      ],
      "stateMutability": "view",
      "type": "function"
    }
  ],
  "bytecode": "0x60806040526200004f6040518060400160405280601a81526020017f54686520736d61727469657374206f6620636f6e747261637473000000000000815250620000c260201b620006881760201c565b6200009a6040518060400160405280601781526020017f436f6e7374727563746f7220636f6e7374727563746564000000000000000000815250620000c260201b620006881760201c565b60644442620000aa91906200020f565b620000b69190620002ac565b60018190555062000353565b6200016281604051602401620000d99190620001cf565b6040516020818303038152906040527f41304fac000000000000000000000000000000000000000000000000000000007bffffffffffffffffffffffffffffffffffffffffffffffffffffffff19166020820180517bffffffffffffffffffffffffffffffffffffffffffffffffffffffff83818316178352505050506200016560201b60201c565b50565b60008151905060006a636f6e736f6c652e6c6f679050602083016000808483855afa5050505050565b60006200019b82620001f3565b620001a78185620001fe565b9350620001b981856020860162000276565b620001c48162000342565b840191505092915050565b60006020820190508181036000830152620001eb81846200018e565b905092915050565b600081519050919050565b600082825260208201905092915050565b60006200021c826200026c565b915062000229836200026c565b9250827fffffffffffffffffffffffffffffffffffffffffffffffffffffffffffffffff03821115620002615762000260620002e4565b5b828201905092915050565b6000819050919050565b60005b838110156200029657808201518184015260208101905062000279565b83811115620002a6576000848401525b50505050565b6000620002b9826200026c565b9150620002c6836200026c565b925082620002d957620002d862000313565b5b828206905092915050565b7f4e487b7100000000000000000000000000000000000000000000000000000000600052601160045260246000fd5b7f4e487b7100000000000000000000000000000000000000000000000000000000600052601260045260246000fd5b6000601f19601f8301169050919050565b6112a080620003636000396000f3fe608060405234801561001057600080fd5b506004361061004c5760003560e01c80633a05e29e146100515780634ad0903a1461006f5780638a215be31461009f578063d8686ecb146100bd575b600080fd5b6100596100d9565b6040516100669190610cd3565b60405180910390f35b61008960048036038101906100849190610a41565b61022a565b6040516100969190610e1c565b60405180910390f35b6100a7610242565b6040516100b49190610e1c565b60405180910390f35b6100d760048036038101906100d29190610a6a565b61028d565b005b60606002805480602002602001604051908101604052809291908181526020016000905b8282101561022157838290600052602060002090600302016040518060600160405290816000820160009054906101000a900473ffffffffffffffffffffffffffffffffffffffff1673ffffffffffffffffffffffffffffffffffffffff1673ffffffffffffffffffffffffffffffffffffffff16815260200160018201805461018690611002565b80601f01602080910402602001604051908101604052809291908181526020018280546101b290611002565b80156101ff5780601f106101d4576101008083540402835291602001916101ff565b820191906000526020600020905b8154815290600101906020018083116101e257829003601f168201915b50505050508152602001600282015481525050815260200190600101906100fd565b50505050905090565b60036020528060005260406000206000915090505481565b60006102856040518060400160405280601681526020017f5765206861766520256420746f74616c20676d27732100000000000000000000815250600054610721565b600054905090565b42601e600360003373ffffffffffffffffffffffffffffffffffffffff1673ffffffffffffffffffffffffffffffffffffffff168152602001908152602001600020546102da9190610f2e565b1061031a576040517f08c379a000000000000000000000000000000000000000000000000000000000815260040161031190610dfc565b60405180910390fd5b42600360003373ffffffffffffffffffffffffffffffffffffffff1673ffffffffffffffffffffffffffffffffffffffff1681526020019081526020016000208190555060016000808282546103709190610f2e565b925050819055506103b76040518060400160405280601b81526020017f25732068617320676d27642077697468206d657373616765202573000000000081525033836107bd565b600260405180606001604052803373ffffffffffffffffffffffffffffffffffffffff16815260200183815260200142815250908060018154018082558091505060019003906000526020600020906003020160009091909190915060008201518160000160006101000a81548173ffffffffffffffffffffffffffffffffffffffff021916908373ffffffffffffffffffffffffffffffffffffffff1602179055506020820151816001019080519060200190610476929190610921565b50604082015181600201555050606460015442446104949190610f2e565b61049e9190610f2e565b6104a89190611065565b6001819055506104ef6040518060400160405280601681526020017f52616e646f6d20232067656e6572617465643a20256400000000000000000000815250600154610721565b603260015411610635576105386040518060400160405280600781526020017f257320776f6e21000000000000000000000000000000000000000000000000008152503361085c565b60006509184e72a000905047811115610586576040517f08c379a000000000000000000000000000000000000000000000000000000000815260040161057d90610dbc565b60405180910390fd5b60003373ffffffffffffffffffffffffffffffffffffffff16826040516105ac90610cbe565b60006040518083038185875af1925050503d80600081146105e9576040519150601f19603f3d011682016040523d82523d6000602084013e6105ee565b606091505b5050905080610632576040517f08c379a000000000000000000000000000000000000000000000000000000000815260040161062990610ddc565b60405180910390fd5b50505b3373ffffffffffffffffffffffffffffffffffffffff167fb464ee1ab3c11f32128cf985db333142786d4aefe83b2064fabedbaddca3ae7d428360405161067d929190610e37565b60405180910390a250565b61071e8160405160240161069c9190610cf5565b6040516020818303038152906040527f41304fac000000000000000000000000000000000000000000000000000000007bffffffffffffffffffffffffffffffffffffffffffffffffffffffff19166020820180517bffffffffffffffffffffffffffffffffffffffffffffffffffffffff83818316178352505050506108f8565b50565b6107b98282604051602401610737929190610d8c565b6040516020818303038152906040527f9710a9d0000000000000000000000000000000000000000000000000000000007bffffffffffffffffffffffffffffffffffffffffffffffffffffffff19166020820180517bffffffffffffffffffffffffffffffffffffffffffffffffffffffff83818316178352505050506108f8565b5050565b6108578383836040516024016107d593929190610d47565b6040516020818303038152906040527fe0e9ad4f000000000000000000000000000000000000000000000000000000007bffffffffffffffffffffffffffffffffffffffffffffffffffffffff19166020820180517bffffffffffffffffffffffffffffffffffffffffffffffffffffffff83818316178352505050506108f8565b505050565b6108f48282604051602401610872929190610d17565b6040516020818303038152906040527f319af333000000000000000000000000000000000000000000000000000000007bffffffffffffffffffffffffffffffffffffffffffffffffffffffff19166020820180517bffffffffffffffffffffffffffffffffffffffffffffffffffffffff83818316178352505050506108f8565b5050565b60008151905060006a636f6e736f6c652e6c6f679050602083016000808483855afa5050505050565b82805461092d90611002565b90600052602060002090601f01602090048101928261094f5760008555610996565b82601f1061096857805160ff1916838001178555610996565b82800160010185558215610996579182015b8281111561099557825182559160200191906001019061097a565b5b5090506109a391906109a7565b5090565b5b808211156109c05760008160009055506001016109a8565b5090565b60006109d76109d284610e8c565b610e67565b9050828152602081018484840111156109ef57600080fd5b6109fa848285610fc0565b509392505050565b600081359050610a1181611253565b92915050565b600082601f830112610a2857600080fd5b8135610a388482602086016109c4565b91505092915050565b600060208284031215610a5357600080fd5b6000610a6184828501610a02565b91505092915050565b600060208284031215610a7c57600080fd5b600082013567ffffffffffffffff811115610a9657600080fd5b610aa284828501610a17565b91505092915050565b6000610ab78383610c50565b905092915050565b610ac881610f84565b82525050565b610ad781610f84565b82525050565b6000610ae882610ecd565b610af28185610ef0565b935083602082028501610b0485610ebd565b8060005b85811015610b405784840389528151610b218582610aab565b9450610b2c83610ee3565b925060208a01995050600181019050610b08565b50829750879550505050505092915050565b6000610b5d82610ed8565b610b678185610f0c565b9350610b77818560208601610fcf565b610b8081611152565b840191505092915050565b6000610b9682610ed8565b610ba08185610f1d565b9350610bb0818560208601610fcf565b610bb981611152565b840191505092915050565b6000610bd1603283610f1d565b9150610bdc82611163565b604082019050919050565b6000610bf4602b83610f1d565b9150610bff826111b2565b604082019050919050565b6000610c17602983610f1d565b9150610c2282611201565b604082019050919050565b6000610c3a600083610f01565b9150610c4582611250565b600082019050919050565b6000606083016000830151610c686000860182610abf565b5060208301518482036020860152610c808282610b52565b9150506040830151610c956040860182610ca0565b508091505092915050565b610ca981610fb6565b82525050565b610cb881610fb6565b82525050565b6000610cc982610c2d565b9150819050919050565b60006020820190508181036000830152610ced8184610add565b905092915050565b60006020820190508181036000830152610d0f8184610b8b565b905092915050565b60006040820190508181036000830152610d318185610b8b565b9050610d406020830184610ace565b9392505050565b60006060820190508181036000830152610d618186610b8b565b9050610d706020830185610ace565b8181036040830152610d828184610b8b565b9050949350505050565b60006040820190508181036000830152610da68185610b8b565b9050610db56020830184610caf565b9392505050565b60006020820190508181036000830152610dd581610bc4565b9050919050565b60006020820190508181036000830152610df581610be7565b9050919050565b60006020820190508181036000830152610e1581610c0a565b9050919050565b6000602082019050610e316000830184610caf565b92915050565b6000604082019050610e4c6000830185610caf565b8181036020830152610e5e8184610b8b565b90509392505050565b6000610e71610e82565b9050610e7d8282611034565b919050565b6000604051905090565b600067ffffffffffffffff821115610ea757610ea6611123565b5b610eb082611152565b9050602081019050919050565b6000819050602082019050919050565b600081519050919050565b600081519050919050565b6000602082019050919050565b600082825260208201905092915050565b600081905092915050565b600082825260208201905092915050565b600082825260208201905092915050565b6000610f3982610fb6565b9150610f4483610fb6565b9250827fffffffffffffffffffffffffffffffffffffffffffffffffffffffffffffffff03821115610f7957610f78611096565b5b828201905092915050565b6000610f8f82610f96565b9050919050565b600073ffffffffffffffffffffffffffffffffffffffff82169050919050565b6000819050919050565b82818337600083830152505050565b60005b83811015610fed578082015181840152602081019050610fd2565b83811115610ffc576000848401525b50505050565b6000600282049050600182168061101a57607f821691505b6020821081141561102e5761102d6110f4565b5b50919050565b61103d82611152565b810181811067ffffffffffffffff8211171561105c5761105b611123565b5b80604052505050565b600061107082610fb6565b915061107b83610fb6565b92508261108b5761108a6110c5565b5b828206905092915050565b7f4e487b7100000000000000000000000000000000000000000000000000000000600052601160045260246000fd5b7f4e487b7100000000000000000000000000000000000000000000000000000000600052601260045260246000fd5b7f4e487b7100000000000000000000000000000000000000000000000000000000600052602260045260246000fd5b7f4e487b7100000000000000000000000000000000000000000000000000000000600052604160045260246000fd5b6000601f19601f8301169050919050565b7f547279696e6720746f2077746864726177206d6f7265206d6f6e65792074686160008201527f6e2074686520636f6e7472616374206861730000000000000000000000000000602082015250565b7f4661696c656420746f2077697468647261772065746865722066726f6d20746860008201527f6520636f6e74726163742e000000000000000000000000000000000000000000602082015250565b7f4d7573742077616974203330207365636f6e6473206265666f7265207761766960008201527f6e6720616761696e2e0000000000000000000000000000000000000000000000602082015250565b50565b61125c81610f84565b811461126757600080fd5b5056fea2646970667358221220d3aaef18061d39274d60f204d0fabc57ae035ec8428822548e1362d3360c9c1664736f6c63430008040033",
  "linkReferences": {},
  "deployedLinkReferences": {}
}